:020000040800F2
:100000000000022095D90008E5BF0008EDBF0008F8
:10001000F5BF0008FDBF000805C000080000000093
:1000200000000000000000000000000069970008C8
:100030000DC0000800000000259700085596000834
:10004000E5D90008E5D90008E5D90008E5D9000898
:10005000E5D90008E5D90008E5D90008E5D9000888
:10006000E5D90008E5D90008E5D9000869A5000828
:10007000E5D90008E5D90008E5D90008E5D9000868
:10008000E5D90008E5D90008E5D90008E5D9000858
:10009000E5D90008E5D90008E5D90008E5D9000848
:1000A000E5D90008E5D90008E5D90008E5D9000838
:1000B0001DC00008E5D90008E5D90008E5D9000809
:1000C000E5D90008E5D90008E5D90008E5D9000818
:1000D000E5D90008E5D90008E5D90008E5D9000808
:1000E00031C00008E5D90008E5D90008E5D90008C5
:1000F000E5D90008E5D90008E5D90008E5D90008E8
:10010000E5D90008E5D90008E5D90008E5D90008D7
:10011000E5D90008E5D90008E5D90008E5D90008C7
:10012000E5D90008E5D90008E5D90008E5D90008B7
:10013000E5D90008E5D90008E5D90008E5D90008A7
:10014000E5D90008E5D90008E5D90008E5D9000897
:10015000E5D90008E5D90008E5D90008E5D9000887
:10016000E5D90008E5D90008E5D90008E5D9000877
:10017000E5D90008E5D90008E5D90008E5D9000867
:10018000E5D90008E5D90008E5D90008E5D9000857
:10019000E5D9000800000000E5D90008E5D900080D
:1001A000E5D90008E5D90008E5D9000855A50008FB
:1001B000E5D90008E5D90008E5D90008E5D9000827
:1001C000E5D90008E5D90008E5D90008E5D9000817
:0801D000E5D90008E5D900089B
:1001D80081F0004102E000BF83F0004330B54FEAF0
:1001E80041044FEA430594EA050F08BF90EA020F5D
:1001F8001FBF54EA000C55EA020C7FEA645C7FEAF0
:10020800655C00F0E2804FEA5454D4EB5555B8BF12
:100218006D420CDD2C4480EA020281EA030382EA83
:10022800000083EA010180EA020281EA0303362D15
:1002380088BF30BD11F0004F4FEA01314FF4801CE8
:100248004CEA113102D0404261EB410113F0004FFA
:100258004FEA03334CEA133302D0524263EB4303B1
:1002680094EA050F00F0A780A4F10104D5F1200E4F
:100278000DDB02FA0EFC22FA05F2801841F10001AA
:1002880003FA0EF2801843FA05F359410EE0A5F17E
:1002980020050EF1200E012A03FA0EFC28BF4CF0AF
:1002A800020C43FA05F3C01851EBE37101F0004565
:1002B80007D54FF0000EDCF1000C7EEB00006EEB72
:1002C8000101B1F5801F1BD3B1F5001F0CD34908FC
:1002D8005FEA30004FEA3C0C04F101044FEA445253
:1002E80012F5800F80F09A80BCF1004F08BF5FEADA
:1002F800500C50F1000041EB045141EA050130BDBA
:100308005FEA4C0C404141EB0101013C28BFB1F5CB
:10031800801FE9D291F0000F04BF01460020B1FA16
:1003280081F308BF2033A3F10B03B3F120020CDAE9
:100338000C3208DD02F1140CC2F10C0201FA0CF0C7
:1003480021FA02F10CE002F11402D8BFC2F1200C2C
:1003580001FA02F120FA0CFCDCBF41EA0C019040E2
:10036800E41AA2BF01EB0451294330BD6FEA04042B
:100378001F3C1CDA0C340EDC04F11404C4F1200216
:1003880020FA04F001FA02F340EA030021FA04F328
:1003980045EA030130BDC4F10C04C4F1200220FA7F
:1003A80002F001FA04F340EA0300294630BD21FABD
:1003B80004F0294630BD94F0000F83F4801306BF83
:1003C80081F480110134013D4EE77FEA645C18BF77
:1003D8007FEA655C29D094EA050F08BF90EA020F0E
:1003E80005D054EA000C04BF1946104630BD91EA06
:1003F800030F1EBF0021002030BD5FEA545C05D109
:100408004000494128BF41F0004130BD14F5800447
:100418003CBF01F5801130BD01F0004545F0FE41BB
:1004280041F470014FF0000030BD7FEA645C1ABFF0
:10043800194610467FEA655C1CBF0B46024650EA27
:10044800013406BF52EA033591EA030F41F4002153
:1004580030BD00BF90F0000F04BF0021704730B5D9
:100468004FF4806404F132044FF000054FF00001AE
:1004780050E700BF90F0000F04BF0021704730B56F
:100488004FF4806404F1320410F0004548BF404244
:100498004FF000013EE700BF42004FEAE2014FEA99
:1004A80031014FEA02701FBF12F07F4393F07F4F74
:1004B80081F06051704732F07F4208BF704793F077
:1004C8007F4F04BF41F40021704730B54FF460748A
:1004D80001F0004521F000411CE700BF50EA01028D
:1004E80008BF704730B54FF000050AE050EA010236
:1004F80008BF704730B511F0004502D5404261EBA6
:1005080041014FF4806404F132045FEA915C3FF4E6
:10051800D8AE4FF003025FEADC0C18BF03325FEA83
:10052800DC0C18BF033202EBDC02C2F1200300FA34
:1005380003FC20FA02F001FA03FE40EA0E0021FA59
:1005480002F11444BDE600BF70B54FF0FF0C4CF447
:10055800E06C1CEA11541DBF1CEA135594EA0C0FF9
:1005680095EA0C0F00F0DEF82C4481EA030621EA34
:100578004C5123EA4C5350EA013518BF52EA03356F
:1005880041F4801143F4801338D0A0FB02CE4FF021
:100598000005E1FB02E506F00042E0FB03E54FF051
:1005A8000006E1FB03569CF0000F18BF4EF0010E49
:1005B800A4F1FF04B6F5007F64F5407404D25FEA45
:1005C8004E0E6D4146EB060642EAC62141EA5551F8
:1005D8004FEAC52040EA5E504FEACE2EB4F1FD0C3A
:1005E80088BFBCF5E06F1ED8BEF1004F08BF5FEAB8
:1005F800500E50F1000041EB045170BD06F000466A
:1006080046EA010140EA020081EA0301B4EB5C0416
:10061800C2BFD4EB0C0541EA045170BD41F480110E
:100628004FF0000E013C00F3AB8014F1360FDEBF33
:10063800002001F0004170BDC4F10004203C35DA0F
:100648000C341BDC04F11404C4F1200500FA05F392
:1006580020FA04F001FA05F240EA020001F0004233
:1006680021F0004110EBD37021FA04F642EB0601A9
:100678005EEA430E08BF20EAD37070BDC4F10C04D3
:10068800C4F1200500FA04F320FA05F001FA04F297
:1006980040EA020001F0004110EBD37041F1000183
:1006A8005EEA430E08BF20EAD37070BDC4F120058E
:1006B80000FA05F24EEA020E20FA04F301FA05F2F6
:1006C80043EA020321FA04F001F0004121FA04F29E
:1006D80020EA020000EBD3705EEA430E08BF20EA6E
:1006E800D37070BD94F0000F0FD101F000464000A8
:1006F80041EB010111F4801F08BF013CF7D041EA2A
:10070800060195F0000F18BF704703F0004652002D
:1007180043EB030313F4801F08BF013DF7D043EAFE
:100728000603704794EA0C0F0CEA135518BF95EAB4
:100738000C0F0CD050EA410618BF52EA4306D1D13B
:1007480081EA030101F000414FF0000070BD50EA5A
:10075800410606BF1046194652EA430619D094EAE4
:100768000C0F02D150EA013613D195EA0C0F05D1CE
:1007780052EA03361CBF104619460AD181EA030122
:1007880001F0004141F0FE4141F470014FF00000DA
:1007980070BD41F0FE4141F4780170BD70B54FF075
:1007A800FF0C4CF4E06C1CEA11541DBF1CEA1355F5
:1007B80094EA0C0F95EA0C0F00F0A7F8A4EB0504D7
:1007C80081EA030E52EA03354FEA013100F08880CE
:1007D8004FEA03334FF0805545EA131343EA126397
:1007E8004FEA022245EA111545EA10654FEA00264C
:1007F8000EF000419D4208BF964244F1FD0404F505
:10080800407402D25B084FEA3202B61A65EB030560
:100818005B084FEA32024FF480104FF4002CB6EB1D
:10082800020E75EB030E22BFB61A754640EA0C009D
:100838005B084FEA3202B6EB020E75EB030E22BFDD
:10084800B61A754640EA5C005B084FEA3202B6EB1E
:10085800020E75EB030E22BFB61A754640EA9C00DD
:100868005B084FEA3202B6EB020E75EB030E22BFAD
:10087800B61A754640EADC0055EA060E18D04FEA6B
:10088800051545EA16754FEA06164FEAC30343EA0B
:1008980052734FEAC2025FEA1C1CC0D111F4801FD8
:1008A8000BD141EA00014FF000004FF0004CB6E7D1
:1008B80011F4801F04BF01430020B4F1FD0C88BF70
:1008C800BCF5E06F3FF6AFAEB5EB030C04BFB6EB7B
:1008D800020C5FEA500C50F1000041EB045170BD6E
:1008E8000EF0004E4EEA113114EB5C04C2BFD4EB9B
:1008F8000C0541EA045170BD41F480114FF0000E1F
:10090800013C90E645EA060E8DE60CEA135594EA9A
:100918000C0F08BF95EA0C0F3FF43BAF94EA0C0F9D
:100928000AD150EA01347FF434AF95EA0C0F7FF412
:1009380025AF104619462CE795EA0C0F06D152EA66
:1009480003353FF4FDAE1046194622E750EA41064A
:1009580018BF52EA43067FF4C5AE50EA41047FF45B
:100968000DAF52EA43057FF4EBAE12E74FF0FF3CC0
:1009780006E000BF4FF0010C02E000BF4FF0010C91
:100988004DF804CD4FEA410C7FEA6C5C4FEA430C0A
:1009980018BF7FEA6C5C1BD001B050EA410C0CBF59
:1009A80052EA430C91EA030F02BF90EA020F0020BB
:1009B800704710F1000F91EA030F58BF994208BF22
:1009C80090422CBFD8176FEAE37040F001007047DF
:1009D8004FEA410C7FEA6C5C02D150EA013C07D136
:1009E8004FEA430C7FEA6C5CD6D152EA033CD3D081
:1009F8005DF8040B704700BF8446104662468C467B
:100A08001946634600E000BF01B5FFF7B7FF0028AD
:100A180048BF10F1000F01BD4DF808EDFFF7F4FFD6
:100A28000CBF012000205DF808FB00BF4DF808ED61
:100A3800FFF7EAFF34BF012000205DF808FB00BF84
:100A48004DF808EDFFF7E0FF94BF012000205DF8A6
:100A580008FB00BF4DF808EDFFF7CEFF94BF01205B
:100A680000205DF808FB00BF4DF808EDFFF7C4FF54
:100A780034BF012000205DF808FB00BF4FEA410C9D
:100A88007FEA6C5C02D150EA013C0AD14FEA430C80
:100A98007FEA6C5C02D152EA033C02D14FF00000BD
:100AA80070474FF0010070474A0011D212F500124A
:100AB80011D20DD56FF47873B3EB62520ED44FEAAE
:100AC800C12343F0004343EA505323FA02F070472E
:100AD8004FF00000704750EA013002D14FF0FF306C
:100AE80070474FF00000704753B94AB9002908BF52
:100AF80000281CBF4FF0FF314FF0FF3000F00CB85A
:100B0800ADF1080C6DE904CE0DF026F9DDF804E02E
:100B1800DDE9022304B07047704700BF0348044B67
:100B2800834202D0034B03B118477047E40000200A
:100B3800E4000020000000000548064B1B1AD90FEE
:100B480001EBA301491002D0034B03B118477047CA
:100B5800E4000020E40000200000000010B5064C6E
:100B6800237843B9FFF7DAFF044B13B10448AFF316
:100B780000800123237010BDE80000200000000061
:100B88009CE0000808B5054B1BB105490548AFF3C3
:100B98000080BDE80840FFF7CFBF00BF000000009D
:100BA800EC0000209CE0000880B485B000AF7860BD
:100BB8007B681B6803F06003FB60FB68002B04D1B3
:100BC8007B681B6803F01003FB60FB68184614374A
:100BD800BD465DF8047B704780B483B000AF786091
:100BE8007B685B6A18460C37BD465DF8047B704726
:100BF80080B483B000AF78607B681B6B18460C37F5
:100C0800BD465DF8047B704780B483B000AF786060
:100C180039607B681A6A3B681A437B681A6200BFAE
:100C28000C37BD465DF8047B704780B483B000AFD5
:100C3800786039607B681A6A3B68DB431A407B68D6
:100C48001A6200BF0C37BD465DF8047B704780B45C
:100C580083B000AF78607B685B6C43F400427B68CC
:100C68005A6400BF0C37BD465DF8047B704780B4FA
:100C780083B000AF78607B681B6903F48013B3F519
:100C8800801F01D1012300E0002318460C37BD4620
:100C98005DF8047B704780B483B000AF78607B68F0
:100CA800DB6843F001027B68DA6000BF0C37BD46A1
:100CB8005DF8047B704780B483B000AF78607B68D0
:100CC800DB6823F001027B68DA6000BF0C37BD46A1
:100CD8005DF8047B704780B483B000AF78607B68B0
:100CE800DB6803F00103012B01D1012300E000239D
:100CF80018460C37BD465DF8047B704780B483B056
:100D080000AF78607B68DB6843F002027B68DA60DA
:100D180000BF0C37BD465DF8047B704780B483B0D4
:100D280000AF78607B68DB6823F002027B68DA60DA
:100D380000BF0C37BD465DF8047B704780B483B0B4
:100D480000AF78607B68DB6803F00203022B01D1F7
:100D5800012300E0002318460C37BD465DF8047BEC
:100D6800704780B483B000AF78607B68DB6843F07D
:100D780004027B68DA6000BF0C37BD465DF8047B6F
:100D8800704780B483B000AF78607B68DB6823F07D
:100D980004027B68DA6000BF0C37BD465DF8047B4F
:100DA800704780B483B000AF78607B68DB6803F07D
:100DB8000403042B01D1012300E0002318460C375B
:100DC800BD465DF8047B704780B483B000AF78609F
:100DD8007B68DB6843F008027B68DA6000BF0C3789
:100DE800BD465DF8047B704780B483B000AF78607F
:100DF8007B68DB6823F008027B68DA6000BF0C3789
:100E0800BD465DF8047B704780B483B000AF78605E
:100E18007B68DB6803F00803082B01D1012300E09D
:100E2800002318460C37BD465DF8047B704780B434
:100E380083B000AF78607B68DB6843F010027B68A2
:100E4800DA6000BF0C37BD465DF8047B704780B49C
:100E580083B000AF78607B68DB6823F010027B68A2
:100E6800DA6000BF0C37BD465DF8047B704780B47C
:100E780083B000AF78607B68DB6803F01003102B49
:100E880001D1012300E0002318460C37BD465DF868
:100E9800047B704780B483B000AF78607B68DB6800
:100EA80043F020027B68DA6000BF0C37BD465DF86E
:100EB800047B704780B483B000AF78607B68DB68E0
:100EC80023F020027B68DA6000BF0C37BD465DF86E
:100ED800047B704780B483B000AF78607B68DB68C0
:100EE80003F02003202B01D1012300E00023184642
:100EF8000C37BD465DF8047B704780B483B000AF03
:100F080078607B68DB6843F040027B68DA6000BF8A
:100F18000C37BD465DF8047B704780B483B000AFE2
:100F280078607B68DB6823F040027B68DA6000BF8A
:100F38000C37BD465DF8047B704780B483B000AFC2
:100F480078607B68DB6803F04003402B01D1012304
:100F580000E0002318460C37BD465DF8047B704757
:100F680080B483B000AF78607B68DB6843F08002B0
:100F78007B68DA6000BF0C37BD465DF8047B7047BC
:100F880080B483B000AF78607B68DB6823F08002B0
:100F98007B68DA6000BF0C37BD465DF8047B70479C
:100FA80080B483B000AF78607B68DB6803F08003AF
:100FB800802B01D1012300E0002318460C37BD46E1
:100FC8005DF8047B704780B483B000AF78607B68BD
:100FD800DB6843F400027B68DA6000BF0C37BD466B
:100FE8005DF8047B704780B483B000AF78607B689D
:100FF800DB6823F400027B68DA6000BF0C37BD466B
:101008005DF8047B704780B483B000AF78607B687C
:10101800DB6803F40003B3F5000F01D1012300E0FE
:10102800002318460C37BD465DF8047B704780B432
:1010380083B000AF78607B68DB6843F480027B682C
:10104800DA6000BF0C37BD465DF8047B704780B49A
:1010580083B000AF78607B68DB6823F480027B682C
:10106800DA6000BF0C37BD465DF8047B704780B47A
:1010780083B000AF78607B68DB6803F48003B3F566
:10108800800F01D1012300E0002318460C37BD462C
:101098005DF8047B704780B483B000AF78607B68EC
:1010A800DB6843F400127B68DA6000BF0C37BD468A
:1010B8005DF8047B704780B483B000AF78607B68CC
:1010C800DB6823F400127B68DA6000BF0C37BD468A
:1010D8005DF8047B704780B483B000AF78607B68AC
:1010E800DB6803F40013B3F5001F01D1012300E00E
:1010F800002318460C37BD465DF8047B704780B462
:1011080083B000AF78607B68DB6843F480127B684B
:10111800DA6000BF0C37BD465DF8047B704780B4C9
:1011280083B000AF78607B68DB6823F480127B684B
:10113800DA6000BF0C37BD465DF8047B704780B4A9
:1011480083B000AF78607B68DB6803F48013B3F585
:10115800801F01D1012300E0002318460C37BD464B
:101168005DF8047B704780B582B000AF78607B681B
:101178001B681846FFF77BFD0346012B02D17B68ED
:101188000122DA717B68DB79012B0CBF0123002374
:10119800DBB218460837BD4680BD80B582B000AFC7
:1011A80078600B467B807B8803F00103002B0CD012
:1011B8007B681B681846FFF7C0FE0346012B04D066
:1011C8007B681B681846FFF798FE7B8803F00203CC
:1011D800002B0CD07B681B681846FFF7AFFD034651
:1011E800012B04D07B681B681846FFF787FD7B88B6
:1011F80003F00403002B0CD07B681B681846FFF72C
:10120800D0FD0346012B04D07B681B681846FFF706
:10121800A8FD7B8803F00803002B0CD07B681B68B3
:101228001846FFF7F1FD0346012B04D07B681B68C5
:101238001846FFF7C9FD7B8803F01003002B0CD07C
:101248007B681B681846FFF712FE0346012B04D083
:101258007B681B681846FFF7EAFD7B8803F02003CC
:10126800002B0CD07B681B681846FFF734FD03463B
:10127800012B04D07B681B681846FFF70CFD7B88A0
:1012880003F04003002B0CD07B681B681846FFF75F
:1012980087FE0346012B04D07B681B681846FFF7BE
:1012A8005FFE7B8803F08003002B0CD07B681B68F3
:1012B8001846FFF70FFE0346012B04D07B681B6816
:1012C8001846FFF7E7FD7B8803F48073002B0CD0EA
:1012D8007B681B681846FFF732FF0346012B04D0D2
:1012E8007B681B681846FFF70AFF7B8803F40073C6
:1012F800002B0CD07B681B681846FFF7ECFE0346F2
:10130800012B04D07B681B681846FFF7C4FE7B8856
:1013180003F48063002B0CD07B681B681846FFF72A
:1013280072FE0346012B04D07B681B681846FFF742
:101338004AFE7B8803F40063002B0CD07B681B6893
:101348001846FFF794FE0346012B04D07B681B6800
:101358001846FFF76CFE00BF0837BD4680BD80B554
:1013680082B000AF78600B467B807B8803F0010376
:10137800002B0CD07B681B681846FFF7DEFD034680
:10138800012B04D17B681B681846FFF7C6FD7B88D4
:1013980003F00203002B0CD07B681B681846FFF78C
:1013A800CDFC0346012B04D17B681B681846FFF768
:1013B800B5FC7B8803F00403002B0CD07B681B680A
:1013C8001846FFF7EEFC0346012B04D17B681B6827
:1013D8001846FFF7D6FC7B8803F00803002B0CD0D7
:1013E8007B681B681846FFF70FFD0346012B04D1E5
:1013F8007B681B681846FFF7F7FC7B8803F010032F
:10140800002B0CD07B681B681846FFF730FD03469D
:10141800012B04D17B681B681846FFF718FD7B88F1
:1014280003F02003002B0CD07B681B681846FFF7DD
:1014380052FC0346012B04D07B681B681846FFF753
:101448003AFC7B8803F04003002B0CD07B681B68B8
:101458001846FFF7A5FD0346012B04D17B681B68DE
:101468001846FFF78DFD7B8803F08003002B0CD016
:101478007B681B681846FFF72DFD0346012B04D136
:101488007B681B681846FFF715FD7B8803F480739B
:10149800002B0CD07B681B681846FFF750FE0346EC
:1014A800012B04D17B681B681846FFF738FE7B8840
:1014B80003F40073002B0CD07B681B681846FFF7F9
:1014C8000AFE0346012B04D17B681B681846FFF708
:1014D800F2FD7B8803F48063002B0CD07B681B68CB
:1014E8001846FFF790FD0346012B04D17B681B6863
:1014F8001846FFF778FD7B8803F40063002B0CD0B7
:101508007B681B681846FFF7B2FD0346012B04D120
:101518007B681B681846FFF79AFD00BF0837BD4671
:1015280080BD000080B582B000AF78600B46FB70CC
:10153800FB78022B06D17B681B6801211846FFF750
:1015480063FB36E07B681B681C4A934218D07B68B3
:101558001B681B4A934213D07B681B68194A934245
:101568000ED07B681B68184A934209D07B681B68B9
:10157800164A934204D07B681B68154A934218D1D7
:10158800FB78032B06D17B681B6804211846FFF7FC
:101598003BFB0EE0FB78042B0BD17B681B68012119
:1015A8001846FFF731FB7B681B6804211846FFF7D4
:1015B8002BFB00BF0837BD4680BD00BF002C014093
:1015C800003401400040014000440140004801400F
:1015D8000050014080B582B000AF78600B46FB70C8
:1015E800FB78022B06D17B681B6801211846FFF7A0
:1015F8001CFB36E07B681B681C4A934218D07B684A
:101608001B681B4A934213D07B681B68194A934294
:101618000ED07B681B68184A934209D07B681B6808
:10162800164A934204D07B681B68154A934218D126
:10163800FB78032B06D17B681B6804211846FFF74B
:10164800F4FA0EE0FB78042B0BD17B681B680121B0
:101658001846FFF7EAFA7B681B6804211846FFF76B
:10166800E4FA00BF0837BD4680BD00BF002C01402A
:10167800003401400040014000440140004801405E
:101688000050014080B582B000AF78600B46FB7017
:10169800FB78022B06D17B681B6810211846FFF7E0
:1016A800B3FA36E07B681B681C4A934218D07B6803
:1016B8001B681B4A934213D07B681B68194A9342E4
:1016C8000ED07B681B68184A934209D07B681B6858
:1016D800164A934204D07B681B68154A934218D176
:1016E800FB78032B06D17B681B6840211846FFF75F
:1016F8008BFA0EE0FB78042B0BD17B681B6810215A
:101708001846FFF781FA7B681B6840211846FFF7E7
:101718007BFA00BF0837BD4680BD00BF002C0140E2
:1017280000340140004001400044014000480140AD
:101738000050014080B582B000AF78600B46FB7066
:10174800FB78022B06D17B681B6810211846FFF72F
:101758006CFA36E07B681B681C4A934218D07B6899
:101768001B681B4A934213D07B681B68194A934233
:101778000ED07B681B68184A934209D07B681B68A7
:10178800164A934204D07B681B68154A934218D1C5
:10179800FB78032B06D17B681B6840211846FFF7AE
:1017A80044FA0EE0FB78042B0BD17B681B681021F0
:1017B8001846FFF73AFA7B681B6840211846FFF77E
:1017C80034FA00BF0837BD4680BD00BF002C014079
:1017D80000340140004001400044014000480140FD
:1017E8000050014080B584B000AF78600023FB60F2
:1017F8007B681B68404A934202D1404BFB600EE075
:101808007B681B683E4A934202D13E4BFB6006E070
:101818007B681B683C4A934201D13C4BFB607B6868
:101828001A68FB681A60FB681B681846FFF7BCF962
:10183800B860BB68002B06D0BB68102B03D0FB68D0
:1018480001221A7102E0FB6800221A71FB681B680A
:101858002F4A934218D0FB681B682B4A934213D037
:10186800FB681B682B4A93420ED0FB681B682A4A08
:10187800934209D0FB681B68284A934204D0FB684E
:101888001B68274A934204D1FB681B681846FFF778
:10189800DEF9FB681B681E4A934218D0FB681B6878
:1018A800194A934213D0FB681B681A4A93420ED018
:1018B800FB681B68184A934209D0FB681B68174AE3
:1018C800934204D0FB681B68154A934208D17B6891
:1018D8001B681846FFF78CF90346DAB2FB685A71A1
:1018E800FB6800229A71FB680022DA71FB681846CF
:1018F8001037BD4680BD00BF000400400401002031
:101908000008004090010020003401401C02002023
:10191800002C0140004001400044014000480140C3
:101928000050014080B584B000AFF8600B467A6083
:10193800FB72FB7A012B02D07B68002B17D0114B6E
:101948001B78002B13D1F868FFF70DFC0346002B1A
:1019580004D1FB7A012B0AD100230EE07B68002B0F
:1019680002D07B6801221A70064B01221A70FB68AC
:101978001B681846FFF730F9034618461037BD466E
:1019880080BD00BFA802002080B485B000AF786099
:1019980039600023FB7397F90F3018461437BD469A
:1019A8005DF8047B7047000080B584B000AF7860B4
:1019B80039600023FB727B68002B05D1374801F0A2
:1019C8008DFC4FF0FF3365E03B68002B05D13448B0
:1019D80001F084FC4FF0FF335CE0324BD3E90001A7
:1019E8004FF000024FF04043FFF716F80346002B74
:1019F80006D03B68D3E900232A49C1E9002305E062
:101A0800284BD3E900233968C1E90023254BD3E9E2
:101A180000014FF00002244BFEF7FEFF0346002BA7
:101A280002D0224801F05AFC7B685B681B68204A98
:101A380013607B685B685B681E4A13607B685B6841
:101A48009B681D4A13607B685B68DB681B4A1360F0
:101A58001B4B00221A6002F0BDF80023FB60002334
:101A6800FB6007E0174AFB68174942F82310FB6838
:101A78000133FB60FB68012BF4D901F0EBFC034652
:101A8800FB7297F90B30002B02D1104B01221A7010
:101A980097F90B3018461037BD4680BDB8E00008EE
:101AA800DCE00008000000200000F0BF08E10008AA
:101AB8000005002004050020080500200C05002072
:101AC80010050020AC020020453C0008FD04002061
:101AD80080B586B000AF78600023FB7500233B61BA
:101AE8000023FB732A4B1B78DBB2002B0CBF0123AE
:101AF8000023DBB2BB73274B02221A707B68002BD2
:101B08000BD1234B1B78DBB2002B06D1224B1B7861
:101B1800DBB2002B01D1012300E00023FB7316E0A8
:101B28000A2007F099FC3B6903F51C5310333B610D
:101B38007B68B3F1FF3F05D03A697B689A4201D9C7
:101B4800012300E00023FB73002001F0DBFC104BB5
:101B58001B78DBB2002B07D10F4B1B78DBB2002BB5
:101B680002D1FB7B002BDBD00A4B03221A70FB7BD4
:101B7800002B01D09C23FB75BB7B002B01D002F00E
:101B880057F997F9173018461837BD4680BD00BF7A
:101B9800FB040020FD040020FC04002080B586B072
:101BA80000AF034687ED000BFB810023FB75012383
:101BB800BB754FF000024FF00003D7E90001FEF7B4
:101BC80035FF0346002B05D02E4801F087FB4FF068
:101BD800FF3353E0FB89FF2B08D9FB89FF22194605
:101BE800294801F07BFB4FF0FF3347E0274B1B7878
:101BF800DBB2032B04D0254B1B78DBB2012B02D1BF
:101C0800224B04221A70FB89012B15D8FB89204A24
:101C180052F82330002B0FD002F0D0FC03467B751E
:101C28007B7D022B08D1FB89194A52F82330FA89A7
:101C3800104698470346BB75FB897B82FB8918468B
:101C480097ED000B01F068FBBB7D002B06D07B8A6B
:101C5800184602F08BFC0346FB7503E07B8A1846A6
:101C680002F0E7FC97F91730002B05D097F91730E9
:101C78001946084801F032FB97F91730184618370B
:101C8800BD4680BD74E10008B8E10008FD040020ED
:101C9800AC020020F8E1000880B582B000AF002354
:101CA800FB71002001F02EFC0346FB7197F9073009
:101CB80018460837BD4680BD80B582B000AF002306
:101CC800FB710B4B06221A7001F0BAFC0346FB713C
:101CD8000822002107480CF09DF902F02FF8044B68
:101CE80000221A7097F9073018460837BD4680BD9C
:101CF800FD040020AC02002080B400AF034B1B7829
:101D0800DBB21846BD465DF8047B7047FC04002032
:101D180080B400AF034B1B78DBB21846BD465DF8B4
:101D2800047B70471405002080B483B000AF78604E
:101D38007B681B6843F001027B681A6000BF0C37A0
:101D4800BD465DF8047B704780B483B000AF78600F
:101D58007B681B6823F001027B681A6000BF0C37A0
:101D6800BD465DF8047B704780B483B000AF7860EF
:101D780039607B681B6823F004023B681A437B6860
:101D88001A6000BF0C37BD465DF8047B704780B40D
:101D980083B000AF78607B681B6803F004031846C3
:101DA8000C37BD465DF8047B704780B483B000AF44
:101DB800786039607B683A681A6300BF0C37BD46A3
:101DC8005DF8047B704780B483B000AF78607B68AF
:101DD8005B6943F001027B685A6100BF0C37BD465E
:101DE8005DF8047B704780B483B000AF78607B688F
:101DF8001B6918460C37BD465DF8047B7047000028
:101E080080B485B000AF78607B681B689A68074B20
:101E18001340FB60FB68062B0CBF01230023DBB2D9
:101E280018461437BD465DF8047B7047070001006B
:101E380080B584B000AF78600B46FB707B681B6888
:101E48001846FFF7A4FFF860FB78002B23D07B68C7
:101E58001B68374A934218D07B681B68354A9342FF
:101E680013D07B681B68344A93420ED07B681B688A
:101E7800324A934209D07B681B68314A934204D0A6
:101E88007B681B682F4A934205D17B681B68002139
:101E98001846FFF78AFFFB68042B11D07B681B6884
:101EA80004211846FFF760FF7B681B681846FFF798
:101EB8008AFF7B681B68F9681846FFF755FF04E03E
:101EC8007B681B681846FFF77EFF7B681B6818460F
:101ED800FFF72AFFFB78002B25D07B681B68144A84
:101EE800934218D07B681B68124A934213D07B68D0
:101EF8001B68114A93420ED07B681B680F4A9342B5
:101F080009D07B681B680E4A934204D07B681B6823
:101F18000C4A934207D17B681A687B685B7919463B
:101F28001046FFF742FF00BF1037BD4680BD00BF17
:101F3800002C0140003401400040014000440140B1
:101F4800004801400050014080B582B000AF786081
:101F58007B681B681846FFF7F7FE00BF0837BD46C9
:101F680080BD80B483B000AF78607B6801221A71AD
:101F78007B6801221A6000BF0C37BD465DF8047B00
:101F88007047000080B584B000AF78600948FFF75B
:101F98002AFFF860FB6803F40053002B14BF0123E9
:101FA8000023DBB21A467B681A7000BF1037BD46A3
:101FB80080BD00BF0008004880B483B000AF7860DF
:101FC8007B684FF0FF321A6100BF0C37BD465DF8E1
:101FD800047B704700000000B0B588B000AF87ED03
:101FE800020B39617A603B600346FB753B684FF032
:101FF800FF321A613B685B7D002B0AD13968D7E94B
:102008000223C1E900233B6801225A753B6801227B
:102018009A753B68D3E90023D7E90201FEF7DCF89B
:1020280002460B46C7E906234FF000024C4BD7E99E
:102038000601FEF7B3FB02460B461046194640A3BD
:10204800D3E90023FEF7AAFB02460B4610461946C1
:102058004FF00002434BFEF777FA02460B467968C9
:10206800C1E9002338A3D3E90023D7E90601FEF725
:10207800FBFC0346002B15D03B68D3E9024534A38B
:10208800D3E90023D7E90601FEF7A6F802460B4676
:1020980020462946FEF7A2F802460B463968C1E9F0
:1020A80002232BE02CA3D3E90023D7E90601FEF78E
:1020B800BDFC0346002B15D03B68D3E9024524A399
:1020C800D3E90023D7E90601FEF788F802460B4654
:1020D80020462946FEF782F802460B463968C1E9D0
:1020E80002230BE03B68D3E90201D7E90623FEF798
:1020F80075F802460B463968C1E90223FB7D002BBF
:102108000DD039684FF000024FF00003C1E90223F7
:1021180079684FF000024FF00003C1E900233968E5
:10212800D7E90223C1E900233B68D3E902233969CF
:10213800C1E9002300BF2037BD46B0BDAFF3008022
:102148009A9999999999B93F0000000000FEDF40DB
:102158000000000000FEEF400000000000FEDFC0AD
:102168000000384000004E4080B5A6B000AF78604F
:102178007B6801225A60204BBB6000233B7300231D
:102188007B7307F108031846FFF72CFB02467B68B0
:10219800DA607B68DB6800211846FEF7FEFF022341
:1021A80087F897307B68DB6897F8972011461846C0
:1021B800FFF7B8F97B68DB6897F89720114618464F
:1021C800FFF760FA7B68DB681846FFF719FE0346DD
:1021D80087F8963097F89630002B05D17B68DB6836
:1021E80000211846FFF724FE7B6801221A7200BFFF
:1021F8009837BD4680BD00BF0004004080B5A6B03A
:1022080000AF78607B6801225A60204BBB600023D6
:102218003B7300237B7307F108031846FFF7E2FAC4
:1022280002467B68DA607B68DB6800211846FEF7A7
:10223800B4FF022387F897307B68DB6897F897200C
:1022480011461846FFF76EF97B68DB6897F8972008
:1022580011461846FFF716FA7B68DB681846FFF741
:10226800CFFD034687F8963097F89630002B05D1B6
:102278007B68DB6800211846FFF7DAFD7B680122DE
:102288001A7200BF9837BD4680BD00BF00080040E5
:1022980080B5A6B000AF78607B6801225A60204BF9
:1022A800BB6000233B7300237B7307F108031846C8
:1022B800FFF798FA02467B68DA607B68DB680021E2
:1022C8001846FEF76AFF022387F897307B68DB68B9
:1022D80097F8972011461846FFF724F97B68DB68C2
:1022E80097F8972011461846FFF7CCF97B68DB680A
:1022F8001846FFF785FD034687F8963097F896301D
:10230800002B05D17B68DB6800211846FFF790FD9C
:102318007B6801221A7200BF9837BD4680BD00BF96
:1023280000340140000000002DE9904387B000AF61
:102338008548FFF727FE854BDB6A002200211846F7
:10234800FFF7F0FA7860824B93F8A3407868FEF7BD
:1023580081F8804689467F4B7F4A804949EC108B3B
:102368002046FFF739FE7A4BD3E9240174A3D3E959
:102378000023FEF7E9F802460B467549C1E9002338
:102388007748FFF7FFFD714BDB69002200211846F3
:10239800FFF7C8FA78606E4B93F8A2407868FEF7AA
:1023A80059F8804689466F4B6F4A704949EC108B43
:1023B8002046FFF711FE664BD3E9200160A3D3E95D
:1023C8000023FEF7C1F802460B466149C1E9022322
:1023D8006748FFF7D7FD5D4BDB68002200211846F0
:1023E800FFF7A0FA78605A4B93F8A1407868FEF797
:1023F80031F8804689465F4B5F4A604949EC108B4B
:102408002046FFF7E9FD524BD3E91C014CA3D3E961
:102418000023FEF799F802460B464D49C1E904230B
:102428005748FFF7AFFD5748FFF7DDFC78607B683A
:1024380003F02003002B03D04FF00002524B03E0BF
:102448004FF000024FF000034149C1E906234D480F
:10245800FFF7C9FC78607B6803F01003002B03D0FA
:102468004FF00002484B03E04FF000024FF000032A
:102478003749C1E90823354B93F88730002B09D039
:10248800324B93F88830002B04D0304B93F88930C6
:10249800002B20D12D494FF000024FF00003C1E975
:1024A8001A232A4B012283F8872028494FF000027B
:1024B8004FF00003C1E91C23244B012283F8882034
:1024C80022494FF000024FF00003C1E91E231F4BC1
:1024D800012283F889201E4BD3E90623C7E902238A
:1024E8001A4BD3E91A011A4BD3E90623FEF794FADB
:1024F8000346002B6ED1164BD3E908014FF00002BA
:10250800214BFEF789FA0346002B3FD0104BD3E945
:1025180006014FF000021C4BFEF77EFA0346002B23
:1025280034D00A4BD3E91C014FF00002164BFDF7DB
:1025380053FE02460B460549C1E91C234AE000BF89
:1025480065732D3852C1D03F5B0300206003002023
:10255800B802002020040020500300204803002077
:102568005A030020080400204003002038030020FC
:1025780059030020F0030020300300202803002026
:1025880058030020000400480000F03F924BD3E9B4
:1025980008014FF000024FF00003FEF73DFA034632
:1025A800002B17D08C4BD3E906014FF000028B4B60
:1025B800FEF732FA0346002B0CD0894BD3E91C01F5
:1025C8004FF00002854BFDF709FE02460B46844991
:1025D800C1E91C23824BD3E91C01814BD3E91E239B
:1025E800FDF7FAFD02460B461046194676A3D3E9D5
:1025F8000023FEF7D3F802460B46104619464FF063
:102608000002784BFDF7A0FF02460B467249C1E96C
:102618001A23714B93F8A030002B13D070494FF058
:1026280000024FF00003C1E91C236B494FF0000280
:102638004FF00003C1E91A234FF000024FF00003E6
:10264800C7E902236649D7E90223C1E91A23644B83
:10265800D3E91C236249C1E91E23614BD3E91C233A
:102668005D49C1E918235C4BD3E9180158A3D3E9A4
:102678000023FDF769FF02460B465749C1E90A23C3
:10268800574B93F88430002B09D0554B93F885307D
:10269800002B04D0524B93F88630002B20D15049A0
:1026A8004FF000024FF00003C1E914234C4B012204
:1026B80083F884204A494FF000024FF00003C1E933
:1026C8001623474B012283F8852045494FF0000225
:1026D8004FF00003C1E91823414B012283F88620FB
:1026E8003D4BD3E90623C7E902233D4BD3E9140147
:1026F800394BD3E90623FEF78FF90346002B40F048
:10270800D380354BD3E908014FF00002334BFEF775
:1027180083F90346002B24D02F4BD3E906014FF051
:1027280000022E4BFEF778F90346002B19D02C4BEC
:10273800D3E914014FF000024FF00003FEF76CF9E3
:102748000346002B0DD0264BD3E916014FF00002AB
:10275800224BFDF741FD02460B462149C1E91623EC
:10276800A2E01D4BD3E908014FF000024FF000032F
:10277800FEF752F90346002B36D0174BD3E9060172
:102788004FF00002154BFEF747F90346002B2BD0FC
:10279800134BD3E914014FF000024FF00003FEF78A
:1027A8003BF90346002B1FD00D4BD3E916014FF020
:1027B80000020A4BFDF712FD02460B460849C1E923
:1027C800162371E0AFF300807B14AE47E17A843FB3
:1027D80065732D3852C1D03FB80200200000F03F89
:1027E8006003002000004E40A94BD3E908014FF0D8
:1027F8000002A84BFEF710F90346002B24D0A44B87
:10280800D3E906014FF000024FF00003FEF704F988
:102818000346002B18D0A04BD3E914014FF0000257
:102828009C4BFEF7F9F80346002B0DD09A4BD3E9E1
:1028380016014FF00002974BFDF7D0FC02460B46FD
:102848009549C1E916232FE0914BD3E908014FF0D0
:1028580000024FF00003FEF7DFF80346002B23D0F9
:102868008B4BD3E906014FF000024FF00003FEF74F
:10287800D3F80346002B17D0874BD3E914014FF048
:102888000002844BFEF7C8F80346002B0CD0824B9D
:10289800D3E916014FF000027E4BFDF79DFC02467E
:1028A8000B467D49C1E916237B4BD3E916017A4BC8
:1028B800D3E91823FDF790FC02460B46104619464B
:1028C8006FA3D3E90023FDF769FF02460B461046C4
:1028D80019464FF00002714BFDF736FE02460B46D3
:1028E8006B49C1E916236A4B93F8A030002B13D02B
:1028F80069494FF000024FF00003C1E9162364490B
:102908004FF000024FF00003C1E916234FF0000218
:102918004FF00003C7E902235F49D7E90223C1E961
:1029280014235D4BD3E916235B49C1E918235A4B9D
:10293800D3E916235649C1E91423554BD3E91401A9
:1029480051A3D3E90023FDF7FFFD02460B4650498A
:10295800C1E90C234E4BD3E90623C7E902234C4BAC
:10296800D3E90823C7E904234B4B93F88030002BA5
:102978000ED0494B93F88130002B09D0464B93F881
:102988008230002B04D0444B93F88330002B2BD19A
:1029980041494FF000024FF00003C1E90C233E4BC0
:1029A800012283F880203C494FF000024FF00003D9
:1029B800C1E90E23384B012283F8812036494FF0B4
:1029C80000024FF00003C1E91023334B012283F8C2
:1029D800822031494FF000024FF00003C1E9122371
:1029E8002D4B012283F883202B4BD3E90C014FF0A8
:1029F80000024FF00003FEF70FF80346002B69D0E2
:102A0800254BD3E90E014FF000024FF00003FEF70B
:102A180003F80346002B5DD01D4BD3E906014FF0A8
:102A280000021C4BFDF7F8FF0346002B19D0184B8A
:102A3800D3E908014FF000024FF00003FDF7ECFF67
:102A48000346002B0DD0144BD3E910014FF00002C0
:102A5800104BFDF7C3FB02460B460F49C1E9102393
:102A680063E10B4BD3E906014FF000024FF000037E
:102A7800FDF7D2FF0346002B12D156E1AFF30080D9
:102A88007B14AE47E17A843F65732D3852C1D03F3D
:102A9800B80200200000F03F6003002000004E4014
:102AA8008D4BD3E908014FF000028C4BFDF7B4FFC2
:102AB8000346002B00D138E1894BD3E910014FF0D0
:102AC8000002864BFDF788FB02460B468449C1E9A4
:102AD80010232AE1824BD3E90C014FF000027F4B0F
:102AE800FDF79AFF0346002B57D07D4BD3E90E0123
:102AF8004FF000024FF00003FDF78EFF0346002B56
:102B08004BD0754BD3E906014FF00002734BFDF72C
:102B180083FF0346002B18D06F4BD3E908014FF011
:102B280000026E4BFDF778FF0346002B0DD06C4B6F
:102B3800D3E910014FF00002684BFDF74FFB024646
:102B48000B466749C1E91023EFE0634BD3E906015F
:102B58004FF000024FF00003FDF75EFF0346002B25
:102B680000D1E2E05C4BD3E908014FF000024FF0DE
:102B78000003FDF751FF0346002B00D1D5E0584B69
:102B8800D3E910014FF00002544BFDF725FB024634
:102B98000B465349C1E91023C7E0514BD3E90C0157
:102BA8004FF000024D4BFDF737FF0346002B56D080
:102BB8004B4BD3E90E014FF00002484BFDF72CFFB9
:102BC8000346002B4BD0444BD3E906014FF00002DB
:102BD8004FF00003FDF720FF0346002B18D03E4BB3
:102BE800D3E908014FF000023C4BFDF715FF0346FF
:102BF800002B0DD03A4BD3E910014FF00002374BB0
:102C0800FDF7ECFA02460B463549C1E910238CE082
:102C1800314BD3E906014FF00002304BFDF7FCFEC3
:102C28000346002B00D180E02B4BD3E908014FF07D
:102C380000024FF00003FDF7EFFE0346002B00D122
:102C480073E0274BD3E910014FF00002234BFDF747
:102C5800C3FA02460B462249C1E9102365E0204B1E
:102C6800D3E90C014FF000024FF00003FDF7D4FE4A
:102C78000346002B59D01A4BD3E90E014FF000023E
:102C8800164BFDF7C9FE0346002B4ED0124BD3E975
:102C980006014FF000024FF00003FDF7BDFE0346AA
:102CA800002B1FD00C4BD3E908014FF000024FF066
:102CB8000003FDF7B1FE0346002B13D0084BD3E900
:102CC80010014FF00002054BFDF788FA02460B464B
:102CD8000349C1E9102328E0B80200200000F03FB2
:102CE80060030020524BD3E906014FF00002514B1C
:102CF800FDF792FE0346002B17D04D4BD3E9080190
:102D08004FF000024B4BFDF787FE0346002B0CD01B
:102D1800494BD3E910014FF00002464BFDF75CFA2E
:102D280002460B464449C1E91023434BD3E910013D
:102D3800414BD3E91223FDF74FFA02460B461046E2
:102D4800194637A3D3E90023FDF728FD02460B46B1
:102D5800104619464FF00002384BFDF7F5FB0246C6
:102D68000B463349C1E91223314B93F8A030002BAD
:102D780019D031494FF000024FF00003C1E9102388
:102D88002B494FF000024FF00003C1E912234FF026
:102D980000024FF00003C7E902234FF000024FF092
:102DA8000003C7E904232449D7E90223C1E90C2316
:102DB8002149D7E90423C1E90E231F4BD3E9102386
:102DC8001D49C1E912231C4BD3E910231849C1E955
:102DD8001023174BD3E9100113A3D3E90023FDF700
:102DE800B3FB02460B461249C1E90E23144B9A6AFB
:102DF80001329A629B6A1846FDF72CFB104BD3E907
:102E08000C230F4CFDF7A0FB02460B46C4E9082330
:102E180000BF1C37BD46BDE8908300BFAFF30080FC
:102E28007B14AE47E17A843F65732D3852C1D03F99
:102E3800B80200200000F03F6003002000004E4070
:102E4800580400200000000080B500AF4A494FF048
:102E580000024A4BC1E90E23474945A3D3E90023A1
:102E6800C1E90C23444B464A9A60434B454ADA6011
:102E7800414B454A1A61404B444A5A613E4B444AC9
:102E88005A60434B434A1A60424B434A1A60414BCB
:102E9800414A5A603F4B404A9A603E4B3E4ADA608C
:102EA8003C4B3D4A1A613B4B3B4A5A61394B3A4AC3
:102EB8009A61384B384ADA61364B374A1A62354BD1
:102EC800354A5A62334B344A9A62324B324ADA6292
:102ED800304B314A1A632F4B2F4A5A632D4B2E4AD7
:102EE8009A632C4B2C4ADA63234A234B5B681832CB
:102EF8009A60214A204B5B6808325A601E4A1E4B72
:102F08005B682032DA602548FFF756F82448FFF757
:102F180053F82448FFF750F82348FFF722F8234BCB
:102F280000225A62214B002283F820202048FFF714
:102F38001BF92048FFF715F81C4B00225A611B4B60
:102F480000221A741C48FFF759F91C48FFF709F8C2
:102F5800164B00225A60154B00221A701348FFF7CF
:102F680097F91748FEF7FDFF00BF80BDAFF300805B
:102F78007B14AE47E17A843F580400200000F0BF7C
:102F88001674F2AC6F39328C5C7DB78A3FE0F73F3C
:102F9800A0040020B40400204409010820040020F3
:102FA80008040020F00300205004002060030020E3
:102FB8008003002048040020700300204004002003
:102FC8003804002080B582B000AF424B93F820301F
:102FD800002B27D13F4B012283F820203D4B5B6A11
:102FE800012B1FD13B4B93F82830002B1AD0394BBB
:102FF800DB6A1846FEF7A8FF364BDB6A0021184645
:10300800FEF7ADF90223FB71324BDB6AFA79114600
:103018001846FEF7DFFA2F4BDB6AFA791146184695
:10302800FEF788FB2B4B1B7C002B25D1294B01225B
:103038001A74284B5B69012B1ED1264B1B7E002B73
:103048001AD0244BDB691846FEF77EFF214BDB695B
:1030580000211846FEF783F90223FB711D4BDB693B
:10306800FA7911461846FEF7B5FA1A4BDB69FA7970
:1030780011461846FEF75EFB164B1B78002B25D130
:10308800144B01221A70134B5B68012B1ED1114B94
:103098001B7A002B1AD00F4BDB681846FEF754FF3B
:1030A8000C4BDB6800211846FEF759F90223FB7127
:1030B800084BDB68FA7911461846FEF78BFA054B80
:1030C800DB68FA7911461846FEF734FB00BF08376B
:1030D800BD4680BD6003002080B582B000AF4FF0D0
:1030E80000024FF00003C7E90023164B1B785A1C57
:1030F800D1B2144A1170002B09D0134B01221A6067
:10310800104B1B78013BDAB20E4B1A7016E062B610
:1031180000BF0E4B1B68D3E90823C7E90023FFF75C
:1031280003F997ED000B0020FEF738FD72B600BFDB
:10313800044B1B78013BDAB2024B1A700837BD46C4
:1031480080BD00BFF8040020F404002040090108F5
:1031580080B586B000AF786039605A4B7B615A4BB6
:103168003B610023FB73594B00221A70584B002215
:103178001A7001DF09F032FE08F0B0FB06F084F99E
:1031880008F06CFE08F050FE08F000FC08F0A2FC05
:1031980008F02AFD08F0B4FD4E4B1B6800221A60A7
:1031A80000210020FEF7F0FB0346FB7397F90F3070
:1031B800002B02D097F90F3080E0FFF745FE72B67A
:1031C80000BF62B600BF434B1B685A68414B1B687F
:1031D800383319461046FEF7E7FB0346FB7397F9A9
:1031E8000F30002B0DD14FF0FF30FEF771FCFEF7CA
:1031F80083FD0346002B04D0364B1B68012283F85D
:10320800402072B600BF97ED050A06F02FFAFEF7C8
:103218007FFD0346002B0CD1FEF76EFD0346002B05
:1032280007D12C4B1B6893F84030002B01D10123A8
:1032380000E00023DAB2264B1A7062B600BF62B60D
:1032480000BF2FE0FEF728FD0346FB73FEF760FD85
:103258000346002B0AD1FEF74FFD0346002B05D18C
:103268001C4B1B6893F84030002B01D0012300E071
:103278000023DAB2154B1A70144B1B78DBB2002B03
:103288000CBF01230023DBB21A46114B1A700F4BF7
:103298001B78DBB2002B05D00F4B1B680E4A23F0BE
:1032A800010313600A4B1B78DBB2002BCAD1FFF76E
:1032B80089FEFEF701FD72B600BF002318461837D5
:1032C800BD4680BD0AD7233C00002A43F9040020EC
:1032D800FA0400204009010810E000E00FB480B4AF
:1032E80000AF00BFBD465DF8047B04B0704780B4F2
:1032F80085B000AFF860B9607A60FB68BA681A6098
:10330800FB6804337A681A6000BF1437BD465DF85D
:10331800047B704700000000F0B58BB000AF87ED6C
:10332800020B0346FB80FB88002B77D14FF000028D
:10333800414BD7E90201FDF707F902460B46C7E9F9
:1033480006239FED391B97ED060B0AF049FB53EC5A
:10335800102B10461946FDF7A7FB03467B61002397
:103368007B6233A3D3E90023D7E90601FDF77CFB91
:103378000346002B0ED02EA3D3E90023D7E906017C
:10338800FDF70CFA02460B4610461946FDF78CFB72
:1033980003467B627A6A79692848FFF7A8FF284BB9
:1033A800D3E900014FF00002264BFDF735FB034639
:1033B800002B2ED1224BD3E900014FF000024FF031
:1033C8004043FDF729FB0346002B22D11C4BD3E9D0
:1033D8000001D7E90223FCF7FFFE02460B4614461C
:1033E8001D464FF00002184BD7E90201FDF7ACF873
:1033F80002460B4601210E4620462946FDF716FBDC
:103408000346002B01D100231E46F3B21A460F4B88
:103418001A700F49D7E90223C1E9002300BF2C37EE
:10342800BD46F0BDAFF30080000000000000F04191
:103438000000E0FFFFFFEF4100408F40280500201B
:10344800000000200000F0BF0000B03C1405002080
:103458003005002080B584B000AF0023BB60002396
:103468007B600023FB7323494FF000024FF00003F9
:10347800C1E9002320494FF000024FF00003C1E9E1
:1034880000233A1D07F108031146184605F0B6FF58
:10349800BB687A681146184604F0D2F80346FB73F5
:1034A80097F90F30002B05D01448FFF717FF97F94D
:1034B8000F301AE03A1D07F108031146184605F0C7
:1034C800B4FFBB687A681146184600F053FF0346FC
:1034D800FB7397F90F30002B05D097F90F30194679
:1034E8000748FFF7FBFE97F90F3018461037BD461F
:1034F80080BD00BF180500202005002074E30008E7
:103508009CE3000880B584B000AF0346FB7100233C
:10351800FB730023BB73002005F09EFF00237B7321
:1035280004F05CFA0346FB7397F90F30002B0DD0BB
:1035380097F90F3013F1020F08D097F90F30194699
:103548003C48FFF7CBFE0123BB730BE07B7B002BD2
:1035580004D197F90F3013F1020F01D0012300E0D5
:1035680000237B73BB7B002B21D100F035FF034682
:10357800FB7397F90F30002B0DD097F90F3013F12B
:10358800020F08D097F90F3019462B48FFF7A6FE0F
:103598000123BB730BE07B7B002B04D197F90F3021
:1035A80013F1020F01D0012300E000237B73BB7BE2
:1035B800002B21D104F09CF90346FB7397F90F30D7
:1035C800002B0DD097F90F3013F1020F08D097F99F
:1035D8000F3019461948FFF781FE0123BB730BE032
:1035E8007B7B002B04D197F90F3013F1020F01D028
:1035F800012300E000237B73FB79002B0DD0002012
:1036080005F02AFFBB7B002B02D17B7B002B01D16D
:10361800012300E00023BB7301E00123BB73BB7BE4
:10362800002B3FF47BAF97F90F3018461037BD4693
:1036380080BD00BFC4E30008FCE300082CE40008D8
:1036480080B582B000AF0023BB70394B1B78DBB26A
:10365800002B02D0002000F0DDFF00F0AFFF034692
:10366800FB7000237B600EE00A2005F0F5FE7B6806
:1036780003F51C5310337B600120FFF743FF00F074
:103688009DFF0346FB707B682A4A934202D8FB7869
:10369800002BE9D100F09EFF0346BB7097F902307A
:1036A800002B05D097F9023019462348FFF716FE7C
:1036B80004F00EFB0346BB7097F90230002B05D0CF
:1036C80097F9023019461D48FFF708FE1C4B0022E7
:1036D8001A701C4B00221A701B4B00221A601B4BDD
:1036E80000221A601A4B00221A601A4B00221A6034
:1036F800194B00221A6019494FF000024FF040435D
:10370800C1E900230A4B00221A700822002114483C
:103718000AF080FC13494FF000024FF00003C1E9A2
:10372800002397F9023018460837BD4680BD00BF10
:1037380014050020FF2C310164E4000880E400082F
:10374800FB040020FC0400200005002004050020E4
:10375800080500200C0500201005002000000020AE
:10376800280500203005002080B586B000AF614BE9
:103778001B687B617B69002B00F0B8805E4B1B786F
:10378800DBB2002B04D15B4B1B68002B00F0AE8032
:103798005A4B1B78DBB2022B40F0A880584B1B78A1
:1037A800002B40F0A3807B69D3E90023C7E90223FB
:1037B800544B1B78002B00F08A80534B1B78DBB2EC
:1037C800002B04D0504B1B78DBB2022B01D1012314
:1037D80000E00023FB714C4B1B78DBB2012B04D0BB
:1037E800494B1B78DBB2022B01D1012300E00023F7
:1037F800BB71FB79002B33D0444BD3E90023D7E9C5
:103808000201FDF727F90346002B0AD0404BD3E904
:1038180000013E4BD3E90023FDF708F90346002BCE
:1038280014D13A4BD3E90023D7E90201FDF71CF97B
:103838000346002B14D0364BD3E90001334BD3E9B0
:103848000023FDF7E9F80346002B09D0314B1B682C
:10385800002B02D1304B01221A70294B01221A7019
:10386800BB79002B33D0294BD3E90023D7E90201D8
:10387800FDF7DCF80346002B0AD0254BD3E90001FD
:10388800224BD3E90023FDF7E5F80346002B14D1BA
:103898001E4BD3E90023D7E90201FDF7BDF8034623
:1038A800002B14D01A4BD3E90001184BD3E900239D
:1038B800FDF7DAF80346002B09D0164B1B68002BDE
:1038C80002D1154B01221A700D4B01221A700C4BB4
:1038D8001B78002B0CBF01230023DBB21A46094BCF
:1038E8001A700B49D7E90223C1E9002300BF183732
:1038F800BD4680BD3C050020400500205C05002039
:103908006B050020680500205805002048050020A8
:1039180060050020540500206A05002080B582B0AB
:1039280000AF0023FB719E4B1B78DBB2002B18D134
:103938009C4B00221A709C4B00221A709B4B1B78E0
:10394800DBB2002B2DD0964B02221A70974B002227
:103958001A70974B1B78DBB2002B22D10123FB7125
:103968001FE0924B00221A708E4B1B78DBB2002BA3
:1039780009D0904B00221A70894B00221A70894B8B
:1039880000221A700DE08A4B1B78DBB2002B02D1A3
:103998000123FB7105E0844B1B78FB71824B0022ED
:1039A8001A707F4B1B78DBB2042B00F2D78001A280
:1039B80052F823F0D13900080B3B0008EB39000816
:1039C800BF3A0008493A0008784B1B78DBB2002B55
:1039D80000F0D880724B02221A70744B00221A70C1
:1039E800D0E0FB79002B00F0CF80734B1B68002BD5
:1039F8000DDD6F4B1B78DBB2012B08D16E4B1B68BA
:103A08001A466E4B1A60664B03221A70BCE06C4B68
:103A18001B68002B0AD0674B01221A70684B1B6881
:103A2800664A13605E4B04221A70ADE06548FFF7E2
:103A380055FC604B00221A70594B00221A70A3E003
:103A48005E4B1B68002B04D05C4B1B68013B5B4A38
:103A580013605A4B1B68002B40F098805A4B1B7818
:103A6800DBB2012B06D1534B00221A704C4B0022BB
:103A78001A708BE0554B1B68002B0AD04D4B002267
:103A88001A70524B1B684D4A1360454B01221A703D
:103A98007CE0FB79002B07D0494B1B68474A136031
:103AA8003F4B04221A7071E0424B00221A703C4BC3
:103AB80002221A706AE0414B1B68002B04D03F4B6E
:103AC8001B68013B3D4A13603C4B1B68002B5FD1D0
:103AD8003B4B1B68002B0AD0364B01221A70384B1F
:103AE8001B68364A13602E4B04221A7050E0354882
:103AF800FFF7F4FB2F4B00221A70294B00221A7093
:103B080046E02E4B1B68002B04D02C4B1B68013B56
:103B18002A4A1360294B1B68002B3BD1FB79002BE9
:103B280018D0274B1B68002B0AD0224B01221A7091
:103B3800234B1B68214A1360194B04221A7029E091
:103B48002048FFF7CBFB1B4B00221A70144B0022B6
:103B58001A701FE0124B02221A701BE0104B1B78E0
:103B6800DBB219461A48FFF7B9FB124B00221A704C
:103B78000D4B00221A700B4B00221A70084B0022C2
:103B88001A7008E000BF06E000BF04E000BF02E0D2
:103B980000BF00E000BF00BF0837BD4680BD00BFC2
:103BA8005C050020590500206B0500200C00002052
:103BB8005A0500206A050020540500206C050020E5
:103BC80008000020A4E400085B0500205005002040
:103BD800CCE4000880B400AF10494FF000024FF069
:103BE8000003C1E900230E4B00221A700D4B1B780D
:103BF800DAB20D4B1A700D4B00221A700C4B0022D2
:103C08001A700C4B00221A600B4B00221A7000230A
:103C18001846BD465DF8047B704700BF600500206C
:103C2800680500205A050020690500206A05002063
:103C38006B0500206C0500205C05002080B584B071
:103C480000AF0346FB80FB88002B3FD1314B1B782C
:103C5800DAB2314B1B789A4214BF01230023DBB23E
:103C6800FB732C4B1B78DAB22B4B1A70FB7B002BA7
:103C78000BD02A4B00221A70294B00221A70294BAC
:103C880000221A60284B00221A70224B1B78DBB2E4
:103C9800012B1BD1244B1B78DBB2002B04D1234B07
:103CA8001B78DBB2002B08D11F4B1B78DBB2012B32
:103CB8000CD11C4B1B68012B08D11A4B00221A602F
:103CC8001A4B00221A70184B02221A70114B1B78DB
:103CD800DBB2012B07D1164B1B889BB2FA889A429C
:103CE80001D1FFF741FDFB88002B05D1FFF716FE38
:103CF800104B00221A7006E00E4B1B78002B02D0E6
:103D08000D4B1B7801E0054B1B7818461037BD4654
:103D180080BD00BF5A050020690500206A05002003
:103D28006B0500206C0500205C0500200C000020BD
:103D380038050020710500207005002080B400AF10
:103D480026494FF000024FF00003C1E90023244B3D
:103D580000221A70234B00221A70234B00221A707B
:103D6800224B00221A80224B00221A70214B00227B
:103D78001A70214B00221A60204B00221A70204B27
:103D880000221A701F4B00221A601F4B00221A7063
:103D98001E494FF000024FF00003C1E900231C4BFD
:103DA8004FF47A721A601B4B00221A601A4B0022D9
:103DB8001A601A4B00221A70194B01221A70194BFB
:103DC80000221A70184B00221A70184B00221A7021
:103DD80000231846BD465DF8047B70476005002047
:103DE800680500205C0500206905002038050020D2
:103DF8006A0500206B0500206C0500207005002076
:103E0800710500203C0500204005002048050020E1
:103E18000800002050050020540500205805002007
:103E28000C000020590500205A0500205B050020E1
:103E380080B400AF174B1B78DBB2002B25D1164B93
:103E48001B78DBB2002B0BD0144B1B78DBB2002B9A
:103E580006D1134B01221A70124B01221A7014E07A
:103E68000E4B1B78DBB2002B0BD00B4B1B78DBB255
:103E7800002B06D10A4B00221A700A4B01221A7035
:103E880003E0084B00221A70FFE700BFBD465DF84B
:103E9800047B70475A0500200C00002059050020BB
:103EA800700500207105002080B586B000AFF8606D
:103EB800B9607A603B600023FB7503F0FDFE386152
:103EC800FB681B68184604F00DF90021386803F0F8
:103ED8006BFE0246BB681A6003F056FE02467B681A
:103EE8001A60BB681B68002B0FD0BB681B6819469B
:103EF800386904F0FDFB0246FB681A60FB681B6822
:103F0800002B04D1F623FB7501E0F823FB7597F924
:103F1800173018461837BD4680BD000080B584B0FC
:103F280000AFF860B9607A60FA68BB6813441B7820
:103F380019460848FFF7D2F9FB68002B02D0F86849
:103F480004F0D0F87B6800221A6000231846103766
:103F5800BD4680BDF0E4000880B584B000AFF860CD
:103F6800B9607A60FA68BB6813441B78194606483A
:103F7800FFF7B4F97B6802221A604FF0FF33184646
:103F88001037BD4680BD00BF4CE5000880B485B041
:103F980000AF03460A46FB711346BB710523FB734A
:103FA800FB79F02B02D90023FB7322E0FB79E32B8A
:103FB80005D9FB79F02B02D80123FB7319E0FB79B3
:103FC800D22B02D9FB79E22B08D9FB79C02B08D177
:103FD800BB79002B05D0BB79022B02D80223FB73D7
:103FE80007E0FB79C72B04D9FB79D22B01D803232F
:103FF800FB73FB7B18461437BD465DF8047B70479E
:1040080080B58CB000AFF860B9607A603B60FB683F
:10401800BB62BB6A1B7887F82730002387F82F30EC
:1040280097F82730C02B06D1BB68012B03D9BB6A90
:104038005B7887F82F30364B1B78002B3ED097F8EB
:104048002F2097F8273011461846FFF79FFF0346A1
:10405800FB76002387F82E30FB7E052B23D0FB7ED2
:104068002C4A52F823307B6100233B617B69002B8B
:1040780019D097F827207B691046984738613B6923
:10408800002B14BF01230023DBB287F82E3097F8EA
:104098002E30002B07D03B695A687B681A603B6951
:1040A8009A683B681A6097F82E30002B2CD17B68F1
:1040B800194A1A603B68194A1A6025E097F82730B0
:1040C800FF2B1BD1134B1B683B627B6800221A60D5
:1040D8003B6800221A603B6A002B15D03B6AFF2020
:1040E8009847F861FB69002B0ED0FB695A687B681A
:1040F8001A60FB699A683B681A6005E07B68084AA1
:104108001A603B6800221A6000BF3037BD4680BD88
:104118007305002078050020613F0008F141000880
:10412800253F000880B483B000AF0346FB71044A02
:10413800FB79137000BF0C37BD465DF8047B7047F0
:104148007305002080B400AF034B1B781846BD46AA
:104158005DF8047B704700BF7405002080B483B00D
:1041680000AF0346FB71064B1A78FB791343DAB2AA
:10417800034B1A7000BF0C37BD465DF8047B7047CF
:104188007405002080B483B000AF0346FB7197F933
:104198000730DB435AB2074B1B785BB213405BB264
:1041A800DAB2044B1A7000BF0C37BD465DF8047BC9
:1041B800704700BF7405002080B400AF034B1B7824
:1041C8001846BD465DF8047B704700BF75050020A2
:1041D80080B400AF034B1B881846BD465DF8047BCE
:1041E800704700BF7605002080B586B000AF034653
:1041F800B9607A60FB7397F90F30002B05D1BB6863
:104208003B613B69FF221A7076E0BB687B617B6982
:10421800FE221A7097F90F3010330F2B62D801A2C3
:1042280052F823F0E5420008DD420008D5420008B4
:10423800CD420008C5420008BD420008AD42000852
:10424800B5420008A54200089D42000895420008B2
:104258008D420008754200086D4200087D42000842
:10426800854200087B6930225A7045E07B69292223
:104278005A7041E07B6922225A703DE07B69202216
:104288005A7039E07B6900225A7035E07B69232235
:104298005A7031E07B6921225A702DE07B69112226
:1042A8005A7029E07B6927225A7025E07B692A2207
:1042B8005A7021E07B6910225A701DE07B69242224
:1042C8005A7019E07B6928225A7015E07B6926220A
:1042D8005A7011E07B6931225A700DE07B693322F4
:1042E8005A7009E097F90F3019460548FEF7F6FFAE
:1042F8007B6920225A70FFE700BF1837BD4680BD92
:104308007CE5000880B487B000AF0346B9607A60E6
:10431800FB7300237B61BB68002B23D000233B6128
:1043280000233B6117E03A6913465B0013449B0086
:104338001A46BB6813441B78FA7B9A4208D13A693B
:1043480013465B0013449B001A46BB6813447B6109
:104358003B6901333B613A697B689A4202D27B69C7
:10436800002BE0D07B6918461C37BD465DF8047BFE
:104378007047000080B582B000AF78603960134B99
:104388001B78002B05D01248FEF7A8FF6FF00B032F
:1043980018E000F07BFC00F085FC03460D4A136032
:1043A80002F052FA02F06CFA03460A4A936003F0EC
:1043B80045F803F04DF80346064A5360034B0122C3
:1043C8001A70002318460837BD4680BD72050020C4
:1043D800C0E500087805002080B58CB002AF002346
:1043E80087F82730002387F826300023FB61002355
:1043F800BB6100237B6100233B610023FB6000233A
:104408003B620023BB6000237B60554B1B78002B6D
:1044180005D15448FEF762FF6FF008039BE007F1EF
:10442800140007F1180207F11C0107F110030093AB
:104438000346002003F012FB034687F8273097F95C
:104448002730002B09D097F9273013F1040F04D037
:1044580097F9273013F1050F71D1FB69002B05D0AF
:104468007A693B691A44BB699A4203D9F82387F8E9
:10447800273067E0FA697B6913443B6239693B1D61
:1044880007F10802386AFFF7BBFDBB68002B09D1AA
:104498003B6A1B7819463448FEF720FFF42387F857
:1044A80027304FE0BB68F869796907F10C02984733
:1044B800034687F826307B68002B3DD0FB68002B2D
:1044C8003AD0002387F827303A69FB689A420BD222
:1044D800FB6807F1140207F1180107F11C00FFF748
:1044E800E3FC034687F827303B691A460021386AFF
:1044F80009F090FD97F92730002B1DD1FA697B69E7
:1045080013443B627B68FA6897F92600396A984732
:10451800F969B8697B69FA680192009303460A460B
:104528004FF6FF71012003F041F9034687F8273061
:1045380097F92730002B04D197F927300BE000BFFB
:1045480000E000BFFB69002B03D0FB69184603F0AD
:10455800C9FD97F9273018462837BD4680BD00BFEA
:1045680072050020F0E5000818E6000880B584B060
:1045780000AF0346FB800023FB730023BB600D4B99
:104588001B78002B05D10C48FEF7A8FE6FF0080336
:104598000CE004F0C9FFB860FB880022B96818462F
:1045A80002F06CFB0346FB7397F90F30184610377F
:1045B800BD4680BD7205002048E6000880B400AF03
:1045C800034B1B781846BD465DF8047B704700BF57
:1045D8007305002080B500AF0B4B1B78002B02D170
:1045E8000A48FEF77BFE02F04FFF02F0F1FD00F0F3
:1045F80075FB10220021064809F00CFD024B002231
:104608001A700023184680BD7205002040E7000894
:104618007805002080B584B000AF7860786802F033
:10462800B1FB0346FB7397F90F3018461037BD46A8
:1046380080BD80B584B000AF0346FB800123FB73C7
:10464800FA7BFB880021184602F018FB0346BB736F
:1046580097F90E3018461037BD4680BD80B584B036
:1046680000AF0346FB710123FB6003F0DCFAB8607E
:10467800FA79B968FB68B1FBF3F39A4234BF0123B6
:104688000023DBB218461037BD4680BD80B584B024
:1046980000AF78600B46FB7000F02AFBF860F96801
:1046A8000648FEF71BFE064B1B781A46F968786821
:1046B80009F0E2FC00BF1037BD4680BD68E700087E
:1046C8009005002080B588B000AFF860B9607A60C6
:1046D8000023FB77FA68BB681344BB61BB697B6145
:1046E8000023FB7402F0A6FC0346FB74FB7C002B42
:1046F80008D11A48FEF7F2FD7B6802221A606FF0B3
:104708000A0327E07B695B78002B03D07B695B7821
:10471800012B01D1012300E00023FB74FB7C002B5B
:104728000BD17B695B7819460D48FEF7D7FD7B688E
:1047380002221A606FF001030CE00A48FEF7CEFD72
:104748000120FFF7EFFC0023FB777B6808221A6043
:1047580097F91F3018462037BD4680BD80E700080E
:10476800CCE70008F0E7000880B586B000AF034644
:10477800B9607A60FB7397F90F30002B47D1BB689B
:104788007B6108220021786909F044FC7B69FF22DB
:104798001A7005227B695A7000227B699A7003F0AF
:1047A80042FA0346DAB27B69DA7003F035FA034657
:1047B8009AB27B699A807B6901229A717B6901228E
:1047C800DA717B695B7819461648FEF787FD7B69C5
:1047D8009B7819461448FEF781FD7B69DB781946FA
:1047E8001248FEF77BFD7B699B889BB219461048EF
:1047F800FEF774FD7B699B7919460E48FEF76EFD3E
:104808007B69DB7919460C48FEF768FD06E097F9E5
:104818000F307A68B9681846FFF7E6FC00BF18370A
:10482800BD4680BD18E8000834E8000850E80008D4
:104838006CE8000888E80008A4E8000880B586B09D
:1048480000AFF860B9607A600123FB7502F0F2FBF3
:104858000346FB75FB7D002B08D10B48FEF73EFD98
:104868007B6802221A606FF00A0309E00748FEF726
:1048780035FD0020FFF756FC7B6801221A600023F3
:1048880018461837BD4680BDC0E8000810E9000882
:1048980080B584B000AFF860B9607A600548FEF76B
:1048A8001DFD7B6806221A60002318461037BD4696
:1048B80080BD00BF40E9000880B586B000AF034660
:1048C800B9607A60FB73BB687B6106220021786956
:1048D80009F0A0FB7B69FF221A70FFF733FC03463F
:1048E8001A467B695A70FFF767FC03461A467B69CC
:1048F8009A70FFF76DFC03461A467B699A807B69BC
:104908005B7819460948FEF7E9FC7B699B781946EC
:104918000748FEF7E3FC7B699B889BB2194605486C
:10492800FEF7DCFC00BF1837BD4680BD4CE9000827
:1049380070E9000894E9000880B586B000AFF86017
:10494800B9607A600023FB750B48FEF7C7FC02F0DC
:104958005BFB0346FB75FB7D002B03D003F08CF952
:1049680002F061FB7B6802221A606FF004031846AC
:104978001837BD4680BD00BFB8E9000880B588B0CB
:1049880000AFF860B9607A600023FB77FA68BB680B
:104998001344BB61BB697B610023FB747B695A6864
:1049A8007B69DB781946104600F0AEF90346FB74C4
:1049B800FB7C002B08D10D48FEF790FC7B68022297
:1049C8001A606FF00B030CE07B6959687B69DB7830
:1049D8001A460748FEF782FC7B6801221A6097F99D
:1049E8001F3018462037BD4680BD00BFC0E900080B
:1049F800DCE9000880B58AB000AFF860B9607A6079
:104A0800002387F82730FA68BB6813443B623B6A87
:104A1800FB610023FB7600F06BF97861FB695B783A
:104A28001846FFF71BFE0346FB76FB7E002B0BD1D7
:104A3800FB695B7819461248FEF750FC7B68022236
:104A48001A606FF0010316E07B69002B08D10D484E
:104A5800FEF744FC7B6802221A606FF00B030AE041
:104A6800FB695A78084B1A70074B1B785A1C7B68ED
:104A78001A6097F9273018462837BD4680BD00BF11
:104A880010EA000840EA00089005002080B588B0C8
:104A980000AF0346B9607A60FB7397F90F30002BBB
:104AA80030D100F025F9F861BB68BB610122002113
:104AB800B86909F0AFFABB69FF221A70FB69002BCD
:104AC8001CD0164B1B7801337A689A4216D1BB6802
:104AD80001337B610023FB741148FEF7FFFBFB7C6D
:104AE80019467869FFF7D2FD0C4B1B78184600F081
:104AF80029F90A4B00221A7000BF0AE00948FEF79C
:104B0800EDFB06E097F90F307A68B9681846FFF7A9
:104B18006BFB00BF2037BD4680BD00BF900500205D
:104B28005CEA000868EA000880B588B000AFF86061
:104B3800B9607A600023FB77FA68BB681344BB61ED
:104B4800BB697B610023FB747B695B781846FFF7C0
:104B580085FD0346FB74FB7C002B0BD17B695B78DE
:104B680019461748FEF7BAFB7B6802221A606FF0F5
:104B7800010320E07B695A687B69DB781946104697
:104B880000F0C2F80346FB74FB7C002B08D10D48EB
:104B9800FEF7A4FB7B6802221A606FF00B030AE0A1
:104BA8007B695A78084B1A70074B1B785A1C7B682C
:104BB8001A6097F91F3018462037BD4680BD00BFE0
:104BC80088EA0008BCEA00089005002080B588B093
:104BD80000AF0346B9607A60FB7397F90F30002B7A
:104BE80030D100F085F8F861BB68BB610122002173
:104BF800B86909F00FFABB69FF221A70FB69002B2C
:104C08001CD0164B1B7801337A689A4216D1BB68C0
:104C180001337B610023FB741148FEF75FFBFB7CCB
:104C280019467869FFF732FD0C4B1B78184600F0DF
:104C380089F80A4B00221A7000BF0AE00948FEF7FB
:104C48004DFB06E097F90F307A68B9681846FFF708
:104C5800CBFA00BF2037BD4680BD00BF90050020BD
:104C6800DCEA0008ECEA000880B582B000AF034631
:104C7800FB71FB79072204491846FFF743FB0346FB
:104C880018460837BD4680BD4809010880B500AF01
:104C9800034800F013F800F069F800BF80BD00BFBA
:104CA800714C000880B400AF034B1B681846BD4622
:104CB8005DF8047B704700BF9405002080B483B082
:104CC80000AF7860044A7B68136000BF0C37BD46AC
:104CD8005DF8047B704700BF9405002080B500AFE5
:104CE80000F04BF80020FFF7E9FF00BF80BD00008F
:104CF80080B400AF034B1B681846BD465DF8047BC3
:104D0800704700BF8805002080B483B000AF78608A
:104D18000B46FB70FB78002B04D17B68002B01D17C
:104D2800002306E0064A7B681360054AFB78137186
:104D3800012318460C37BD465DF8047B704700BF59
:104D48008805002080B483B000AF0346FB71064B92
:104D58001A68FB791344044A136000BF0C37BD4638
:104D68005DF8047B704700BF8805002080B400AF61
:104D780000BFBD465DF8047B704780B400AF00BF3C
:104D8800BD465DF8047B704780B584B000AF03462C
:104D9800FB800023FB7305F0E8FE03460B4A136013
:104DA8000B4B1B68002B0CBF01230023DBB2FB73EA
:104DB800FB7B002B04D1054B1B68184605F0E6FE6B
:104DC800FB7B18461037BD4680BD00BFA4050020F8
:104DD800A005002080B582B000AF0346FB80044BDD
:104DE8001B68184605F0D2FE00BF0837BD4680BDD7
:104DF800A405002080B582B000AF0346FB8005F013
:104E0800B4FE0346074A1360074B1B680133064A82
:104E18001360044B1B68184605F0B8FE00BF08373E
:104E2800BD4680BDA4050020A005002080B582B045
:104E380000AF0346FB8005F098FE0346074A13605F
:104E4800074B1B68013B064A1360044B1B68184656
:104E580005F09CFE00BF0837BD4680BDA4050020B4
:104E6800A005002080B483B000AF0346FB80104B40
:104E78001968FA8813465B001344DB000B445B791E
:104E8800022B0AD00A4B1968FA8813465B001344B0
:104E9800DB000B445B79032B01D1012300E00023E5
:104EA800DBB218460C37BD465DF8047B704700BF7F
:104EB8009805002080B582B000AF0023FB71002365
:104EC800BB800023BB8008E0BB881846FFF7CAFFF9
:104ED8000346FB71BB880133BB80094B9B88BA88AA
:104EE8009A4202D2FB79002BEED0FB79002B0CBF43
:104EF80001230023DBB218460837BD4680BD00BF3A
:104F08009805002080B485B000AF0346FB800B46AF
:104F18007B7113463B71284B1B68002B42D0264BF4
:104F28009B88FA889A423DD2234B1968FA8813461F
:104F38005B001344DB000B441B68002B32D01E4B74
:104F48001968FA8813465B001344DB000B441B798D
:104F58007A799A4226D2184B1968FA8813465B0068
:104F68001344DB000B4419687A791346DB009B1A5B
:104F78009B000B441B68002B14D00F4B1968FA8850
:104F880013465B001344DB000B4419687A79134617
:104F9800DB009B1A9B000B441B793A799A4201D299
:104FA800012300E00023FB73FB7B18461437BD4642
:104FB8005DF8047B704700BF9805002080B485B079
:104FC80000AF03463A60FB710B46BB710023FB73CD
:104FD800BB79BB81FB79FF2B04D1BB89FF2B01D89F
:104FE8000123FB73FB7B18461437BD465DF8047B31
:104FF800704780B483B000AF0346FB71FB7923F0A0
:105008001003002B0CBF01230023DBB218460C371A
:10501800BD465DF8047B704780B485B000AF034699
:10502800FB710023FB73FB79002B05D0FB79012B67
:1050380002D0FB79022B01D10123FB73FB7B1846BD
:105048001437BD465DF8047B704780B485B000AF67
:105058000346FB710023FB73FB79002B05D0FB791A
:10506800012B02D0FB79022B01D10123FB73FB7BBF
:1050780018461437BD465DF8047B704780B400AF0E
:1050880001231846BD465DF8047B704780B485B09F
:1050980000AF0346FB80164B1968FA8813465B007D
:1050A8001344DB000B441B7B022B0ED1104B1968F9
:1050B800FA8813465B001344DB000B44DA880D4B77
:1050C8001B889A4201D0012300E00023FB73FB7B7D
:1050D800002B04D0FB88002B01D1012300E0002322
:1050E800FB73FB7B18461437BD465DF8047B70479D
:1050F800980500201800002080B485B000AF7860C3
:105108000B46FB707B681968FA781346DB009B1A1C
:105118009B000B44BB60BB689B687A68D28902FB22
:1051280003F30133FB60FB78002B08D17B681B7A03
:1051380003F01003002B02D0FB680433FB60FB680C
:1051480018461437BD465DF8047B704780B586B0B5
:1051580000AF78600023BB7400237B610023FB74DD
:105168000023FB7415E0FB7C19467868FFF7C4FF41
:10517800F8600023BB600121F86802F015FDB860F3
:10518800BA687B699A4201D9BB687B61FB7C0133B1
:10519800FB747B681B79FA7C9A42E4D37B681B79A1
:1051A8001A4613465B0099187B6814331A467869C7
:1051B80003F050F80346BB7497F91230002B03D064
:1051C8007B684FF0FF325A6197F91230184618374A
:1051D800BD4680BD80B582B000AF78607B685B69F2
:1051E800B3F1FF3F04D07B685B69184603F044F9CC
:1051F8007B684FF0FF325A6100BF0837BD4680BD5B
:1052080080B58AB000AFF860B9607A60002387F88B
:105218002730FA68BB6813443B623B6AFB61FB6951
:105228009A78DB781B0213437B83FB691B797B76B7
:10523800FB695B793B760023FB753A7E797E7B8B35
:105248001846FFF75FFE0346FB75FB7D002B0BD16D
:10525800798B7A7E3B7E1D48FEF740F87B680222F8
:105268001A606FF001032CE07B8B1846FFF7FAFDFC
:105278000346002B0CBF01230023DBB2FB75FB7D2B
:10528800002B0AD17B8B19461148FEF727F87B685B
:1052980002221A606FF0070313E0798B7A7E3B7E57
:1052A8000C48FEF71BF80C4A7B8B13800A4A7B7E5E
:1052B8009370094A3B7ED3707B6801221A6097F984
:1052C800273018462837BD4680BD00BF14EB0008BC
:1052D80058EB000888EB000814000020F0B58FB0E8
:1052E80004AFF860B9607A60002387F82730FA685D
:1052F800BB6813443B623B6AFB61584B1B887B834A
:10530800564B9B787B76554BDB783B7600237B614D
:105318000023FB743A7E797E7B8B1846FFF7F2FDFB
:105328000346FB74FB7C002B0BD1798B7A7E3B7E8A
:105338004B48FDF7D3FF7B6802221A606FF0050324
:1053480087E07B8B1846FFF78DFD0346002B0CBFCB
:1053580001230023DBB2FB74FB7C002B0AD17B8B7F
:1053680019464048FDF7BAFF7B6802221A606FF0C1
:1053780007036EE0FB695878FB699978FB695B68FD
:105388001A46FFF71BFE0346FB74FB7C002B1BD160
:10539800798B7A7E387EFB695B781C46FB699B7843
:1053A8001D46FB69DB781E46FB695B680393029622
:1053B8000195009403462C48FDF790FF7B68022274
:1053C8001A606FF0010344E0798B7A7E387EFB69BE
:1053D8005B781C46FB699B781D46FB69DB781E469B
:1053E800FB695B68039302960195009403461F4886
:1053F800FDF774FF1E4B19687A8B13465B00134444
:10540800DB000B4419687A7E1346DB009B1A9B006D
:105418000B441A683B7EDB0013447B61FB695A78B6
:105428007B691A70FB699A787B695A70FB69DA782C
:105438007B699A70FB695A687B695A60074BDB780D
:105448000133DAB2054BDA707B6801221A6097F9EA
:10545800273018462C37BD46F0BD00BF1400002089
:10546800D8EB000834EC000864EC0008DCEC000819
:105478009805002090B58DB002AFF860B9607A60E9
:10548800002387F82730FA68BB6813443B623B6AFD
:10549800FB610023BB610023FB75614B1B68002B7C
:1054A80008D0FB695B889AB25D4B9B889A4201D20F
:1054B800012300E00023FB75FB7D002B0CD1FB6969
:1054C8005B889BB219465748FDF708FF7B680222A4
:1054D8001A606FF001039FE0514B1A68FB695B8803
:1054E8009BB219460B465B000B44DB001344BB61BF
:1054F800FB695B889BB21846FFF7B4FC0346002B98
:105508000CBF01230023DBB2FB75FB7D002B0CD104
:10551800FB695B889BB219464348FDF7DFFE7B6851
:1055280002221A606FF0070376E0FB699B889BB242
:105538007F2B94BF01230023DBB2FB75FB7D002B7F
:105548000CD1FB699B889BB219463848FDF7C6FE0B
:105558007B6802221A606FF001035DE0FB69DB796A
:10556800002B0CBF01230023DBB2FB75FB7D002B56
:1055780008D12F48FDF7B2FE7B6802221A606FF04F
:10558800010349E0FB695B781846FFF732FD0346E3
:10559800FB75FB7D002B0BD1FB695B781946254811
:1055A800FDF79CFE7B6802221A606FF0090333E066
:1055B800FB695B889BB21946FB695B781846FB69F7
:1055C8009B889BB21C46FB699B791A46FB69DB7971
:1055D80001930092234602461748FDF77FFEFB69B8
:1055E8005A78BB691A72FB699B889AB2BB69DA80E0
:1055F800FB699A79BB695A72FB69DA79BB699A7255
:10560800BB695B7A012B02D8BB6901225A727B689D
:1056180001221A6097F9273018462C37BD4690BDED
:10562800980500204CED00087CED0008B0ED00085E
:10563800E0ED00081CEE000850EE000890B58FB0B1
:1056480000AFF860B9607A60002387F82630FA68FE
:10565800BB6813443B623B6AFB610023BB61FB6987
:105668005B889BB27B61002387F837300023FB748B
:105678008A4B1B68002B07D0884B9B881A467B698E
:10568800934201DA012300E0002387F8373097F8C6
:105698003730002B09D179698148FDF71FFE7B68F7
:1056A80002221A606FF00103B2E17E4A7B6913603F
:1056B8007A4B19687A6913465B001344DB000B4484
:1056C800BB61FB695B781846FFF7A6FC034687F8C1
:1056D800373097F83730002B0BD1FB695B781946C8
:1056E8007148FDF7FBFD7B6802221A606FF0090321
:1056F8008EE1FFF7C3FC0346002B5AD0BB695B79E8
:10570800002B56D1BB691B7A03F00203002B21D072
:10571800BB691B68002B09D0604BDB791A46BB6953
:105728001B791344802B01DC012300E0002387F858
:10573800373097F83730002B2DD0584BDA79BB69C2
:10574800DA72564BDA79BB691B791344DAB2534BD8
:10575800DA7120E0BB691B68002B09D04F4B9B799D
:105768001A46BB691B791344FC2B01DC012300E0BA
:10577800002387F8373097F83730002B0BD0474B8A
:105788009A79BB69DA72454B9A79BB691B791344DC
:10579800DAB2424B9A7197F83730002B09D1796900
:1057A8004248FDF79BFD7B6802221A606FF00803F0
:1057B8002EE1FB695B78012B04D0FB695B78022B37
:1057C80040F0908000233B63012387F837300023A3
:1057D8003B637CE00023FB620023BB620023FB6287
:1057E80013E0BB6919683A6B1346DB009B1A9B00F0
:1057F8000B441A68FB6ADB0013445B781A46BB6AE1
:105808001344BB62FB6A0133FB62BB6919683A6BDC
:105818001346DB009B1A9B000B441B791A46FB6A54
:105828009342DEDB3B6B002B17D1BB691B7A03F07D
:105838001003002B11D0BB69DB891A46BB6A02FB37
:1058480003F35C1D02F0E8F903469C4294BF012370
:105858000023DBB287F8373010E0BB69DB891A46D2
:10586800BB6A02FB03F35C1C02F0D6F903469C42B8
:1058780094BF01230023DBB287F8373097F837301D
:10588800002B17D13A6B79690948FDF727FD7B682A
:1058980002221A606FF00803BAE000BF98050020E2
:1058A800B4EE000810000020E4EE000814EF000831
:1058B80050EF0008BB6919683A6B1346DB009B1A66
:1058C8009B000B44BA6A9A603B6B01333B63BB692C
:1058D8001B791A463B6B934204DA97F83730002B52
:1058E8007FF478AFBB69DB881846FFF74DFA0346AB
:1058F800FB74FB7C002B7DD0002387F82730FB69E5
:105908005B78022B53D0022B5FDC002B02D0012BDB
:1059180013D05AE079694048FDF7E0FCBB690122E1
:105928005A71FFF7C7FA0346002B4BD00120FEF748
:10593800F9FB4020FEF726FC44E079693748FDF77B
:10594800CDFCBB695B69B3F1FF3F22D1BB69DA8843
:10595800334B1B889A420CD1314B5868304B9968AD
:10596800BB6914331A4602F033FE034687F8273022
:105978000FE07B69002B0CDCBB69DB88002B08D1AE
:10598800B869FFF7E3FB034687F82730BB690022B5
:105998001A8297F92730002B16D1BB6903225A7156
:1059A8000220FEF7BFFB4020FEF7D8FB0CE0FB69A6
:1059B8005B889BB219461B48FDF790FCBB69022225
:1059C8005A7102E000BF00E000BFBB69DB881846DF
:1059D800FFF700FA7B6802221A6097F92730002B3C
:1059E80008D01148FDF77AFC7B6802221A606FF034
:1059F80002030DE0FB7C002B08D10C48FDF76EFC80
:105A08007B6802221A606FF00A0301E097F92630DA
:105A180018463C37BD4690BDB4EF0008E0EF0008DB
:105A2800180000200CF0000838F0000884F0000886
:105A380080B586B000AF0346B9607A60FB7397F90A
:105A48000F30002B12D1BB687B617B69FF221A7073
:105A58000C4B1A680C4B1B6819460B465B000B4431
:105A6800DB001344DA7A7B695A7006E097F90F3045
:105A78007A68B9681846FEF7B7FB00BF1837BD4605
:105A880080BD00BF980500201000002090B58BB0A5
:105A980000AFF860B9607A600023FB77FA68BB68EA
:105AA8001344BB61BB697B610023FB740023BB7497
:105AB80000237B627B695B781846FFF7C6FA0346CA
:105AC800FB74FB7C002B0BD17B695B781946A648DD
